:020000040800F2
:10000000C012002005010008231C00081718000872
:10001000211C0008C701000841240008000000005E
:10002000000000000000000000000000471E000863
:100030000B02000800000000451E0008491E0008D1
:100040001F0100081F0100081F0100081F01000810
:100050001F0100081F0100081F0100081F01000800
:100060001F0100081F0100081F0100081F010008F0
:100070001F0100081F0100081F0100081F010008E0
:10008000C9010008D50100081F0100081F01000870
:100090001F0100081F0100081F0100081F010008C0
:1000A0001F0100081F0100081F0100081F010008B0
:1000B0001F0100081F0100081F0100081F010008A0
:1000C0001F0100081F0100081F0100081F01000890
:1000D0001F0100081F010008112400081F0100086B
:1000E0001F0100081F0100081F010008DFF810D0E1
:1000F00000F02CF800480047DD240008AFF3008032
:10010000C01200200648804706480047FEE7FEE789
:10011000FEE7FEE7FEE7FEE7FEE7FEE7FEE7FEE7B7
:10012000AD1E0008ED000008D2B201E000F8012B7E
:10013000491EFBD270470022F6E710B513460A4667
:1001400004461946FFF7F0FF204610BD064C074D48
:1001500006E0E06840F0010394E807009847103497
:10016000AC42F6D3FFF7C6FFD8250008F8250008F3
:1001700070B58C1810F8015B15F0070301D110F869
:10018000013B2A1106D110F8012B03E010F8016B96
:1001900001F8016B5B1EF9D12B0705D40023521E19
:1001A0000DD401F8013BFAE710F8013BCB1A921C81
:1001B00003E013F8015B01F8015B521EF9D5A1427F
:1001C000D8D3002070BDFEE7014800F091B80000D0
:1001D000380A0020014800F08BB800007C0A00209B
:1001E00030B590F840500124AC40C56B6C60046899
:1001F00063604368102B036803D099600068C26095
:1002000030BD9A600068C16030BD704772B6FEE7CD
:1002100010B590F821100022022905D00421816335
:1002200080F82020012010BD01680B6823F00E0328
:100230000B6001680B6823F001030B6090F84030FD
:10024000C46B012101FA03F3636080F8211080F888
:100250002020104610BD000010B590F82110002499
:10026000022903D00421816301243DE001680A686A
:1002700022F00E020A6001680A6822F001020A6098
:100280001A4A0168914201D1012121E0174A143232
:10029000914201D110211BE0144A2832914201D130
:1002A000891515E0114A3C32914201D189140FE0C1
:1002B0000E4A5032914202D14FF4803108E00B4A8D
:1002C0006432914202D14FF4801101E04FF080710D
:1002D000064A083A5160012180F82110002180F877
:1002E0002010416B01B18847204610BD0800024034
:1002F0002DE9F05FC16B0C6801680B68D0F840C055
:10030000042202FA0CF2494DDFF824A1494E4A4F6B
:10031000DFF828B1DFF828E122422CD05A072AD58D
:100320000A68920603D40A6822F004020A6001688F
:10033000A94201D1042219E0514501D1402215E022
:10034000B14202D14FF4806210E0B94202D14FF4C1
:1003500080420BE0594502D14FF4802206E07145FE
:1003600002D14FF4800201E04FF080622F4908393A
:100370004A60C16A3BE04FF0020808FA0CF818EA3C
:10038000040F4FF000094FF0010235D05FEA837887
:1003900032D50B689B0605D40B6823F00A030B606B
:1003A00080F821200168A94201D1022219E05145BB
:1003B00001D1202215E0B14202D14FF4007210E0C9
:1003C000B94202D14FF400520BE0594502D14FF42B
:1003D000003206E0714502D14FF4001201E04FF007
:1003E0000072124908394A6080F82090816A002919
:1003F0001AD0BDE8F05F0847082505FA0CF525423C
:1004000012D01B0710D50B6823F00E030B6090F879
:100410004010C36B02FA01F15960826380F8212019
:1004200080F82090016BE2E7BDE8F09F08000240F1
:100430001C000240300002404400024058000240CC
:100440006C00024030B528B308C81349142219447F
:10045000B1FBF2F18900C163104981630221417748
:100460001A6843F6F0718A43D0E900142143D0E9B9
:1004700002452C4321430469214344692143846993
:100480002143114319600021416301224277017722
:10049000084630BD012030BDF8FFFDBF000002401E
:1004A00070B5044690F82000002501280CD00120EA
:1004B00084F8200094F821600020012E06D084F8F2
:1004C00020000225284670BD022070BD022684F857
:1004D0002160A0632068066826F0010606602046B9
:1004E000FFF77EFEE06A00282068016802D041F034
:1004F0000E0106E021F0040101602068016841F06E
:100500000A0101602068016841F001010160D9E73A
:1005100070B5044600F0FEF80546601C02D00448A1
:100520000078044400F0F6F8401BA042FAD370BDF6
:10053000080000202DE9F84FDFF8B891002409F1F8
:10054000040A0AF1040B23460F270BF1040EC9E03D
:100550000125A5402A40AA427DD1674ED1F804C0AA
:10056000ACEB0608B44532D014DCBCF1030F3AD032
:1005700009DCBCF1000F2AD0BCF1010F1CD0BCF18A
:10058000020F31D11DE0BCF1110F17D0BCF1120FD9
:100590002AD119E0B8F5881F19D006DCB8F5803FDC
:1005A00015D0B8F5801F1FD111E0B8F5001F0ED08F
:1005B000B8F5041F18D10AE0CB6815E0CB681B1D05
:1005C00012E0CB6808330FE0CB680C330CE08B688B
:1005D0002BB1012B4FF0080303D0456104E0042345
:1005E00002E0056100E00023FF2A01D8064601E091
:1005F00000F104064FEA840501D9A5F12005D6F8DB
:10060000008007FA05FC28EA0C0803FA05F548EA19
:100610000508C6F800804D68ED0062D5374DAE691B
:1006200046F00106AE61AD6924F0030605F0010550
:100630000095334D06EB050CDCF80850A607360F85
:1006400007FA06F825EA0805DFF8B880404503D127
:100650004FF0000817E044E0DFF8AC80404502D1DD
:100660004FF001080FE0DFF8A480404502D14FF0C1
:10067000020808E0DFF89880404502D14FF00308F7
:1006800001E04FF0040808FA06F848EA0508CCF83B
:1006900008804D68D9F80060ED034D4601D516433A
:1006A00000E096432E604D68DAF80060AD035546D1
:1006B00001D5164300E096432E604D68DBF80060DC
:1006C000ED025D4601D5164300E096432E604D686D
:1006D000DEF80060AD02754601D5164300E0964392
:1006E0002E60641C0D682A46E5407FF431AFBDE8FA
:1006F000F88F0000000401400000111000100240BB
:100700000000014000080140000C014000100140C1
:100710000014014001488068704700000800002074
:1007200070B504001BD094F83D00002520B984F872
:100730003C50204600F046F9242084F83D00206813
:10074000016821F00101016000F098FA4D4A6168EA
:10075000914201D84C4900E04C49884201D2012025
:1007600070BD4B492368B0FBF1F15E6826F03F068F
:100770000E435E606368934206D94FF49673594303
:100780004FF47A73B1FBF3F12368491C1E6A26F01B
:100790003F06314319626168914210D84900401EFA
:1007A000B0FBF1F2521CC2F30B02042A01D2042066
:1007B00022E0B0FBF1F0401CC0F30B001CE0A3688A
:1007C000F3B301EBC10202EB0116421EB2FBF6F2DB
:1007D000521C42F48042120549D093B301EBC1028E
:1007E00002EB0111401EB0FBF1F0401CC0F30B0006
:1007F00040F4804040F400402168CA694CF6FF7321
:100800009A431043C861D4E90701084321680A6884
:1008100022F0C00210430860D4E9030101432068BC
:10082000826848F2FF339A4311438160D4E905019D
:1008300008432168CA6822F0FF021043C86001E043
:100840000EE016E02068016841F0010101602564B6
:10085000202084F83D00256384F83E50002070BDC0
:1008600001EB4106421EB2FBF6F2521CB3E7012037
:10087000C2E701EB4101401EB0FBF1F0401CC0F3A8
:100880000B00B7E7A086010080841E0000093D0030
:1008900040420F002DE9FF4F83B09A46DDE91197E2
:1008A00093460446DDF84080FFF734FF054694F890
:1008B0003D0020287FD11923012240492046009580
:1008C00001F032F8002876D194F83C00012872D06B
:1008D000012084F83C0020680168C90703D1016841
:1008E00041F0010101602068016821F400610160AC
:1008F000212084F83D00402084F83E000026266434
:10090000C4F82480A4F82A90608D20852C48E062E9
:10091000CDE9007553465A462046049900F094FFED
:1009200070B930E02A463946204601F07CF858B1CB
:10093000206C042804D12068016841F40071016032
:10094000012007B0BDE8F08F606A21680078086177
:10095000606A401C6062218D491E89B22185628DCA
:10096000521E628522685369DB435B070BD469B171
:1009700000781061606A401C6062208D401E2085F6
:10098000608D401E6085208D0028CBD12A463946D7
:10099000204600F0A3FF0028CAD154F83D0B01689F
:1009A00041F400710160202004F81E09E6776677A3
:1009B0000020C6E7FFE70220C3E7000002001000A6
:1009C0000000FFFF10B586B0002100910191029157
:1009D000039100680F4988421AD10F4CA06940F07A
:1009E0000800A061A069694600F008000490C020DA
:1009F000009012200190032003900848FFF79AFD11
:100A0000E06940F40010E061E06900F40010049037
:100A100006B010BD0054004000100240000C014020
:100A20000248816802781144816070470800002004
:100A3000074810B5016841F010010160032000F083
:100A400075F80F2000F006F800F024F8002010BD23
:100A50000020024070B50D4D04464FF47A7128789D
:100A6000B1FBF0F00A490968B1FBF0F000F0ECFAD4
:100A700048B9102C07D200222146501E00F036F84B
:100A800000206C6070BD012070BD000008000020D7
:100A9000140000200C4808B5816941F00101816112
:100AA000816901F001010091C16941F08051C1618A
:100AB000C06900F0805000900448416821F0E06176
:100AC00041F00071416008BD00100240000001408B
:100AD000002809DB00F01F0201219140400980003D
:100AE00000F1E020C0F8001170470000F0B40E4B98
:100AF0001B680C46C3F30223C3F10705042D00D97C
:100B00000425191D072901D2002300E0DB1E012660
:100B100006FA05F1491E214099409E40761E164076
:100B20003143F0BC01F09EBC0CED00E0064900F042
:100B3000070208684FF6FF03184040EA0220034A04
:100B400010430860704700000CED00E00000FA055B
:100B50002DE9F0470F46050061D0434E306800F0A4
:100B60000700B84209D2306820F0070038433060EF
:100B7000306800F00700B84251D128683B4C81072B
:100B800012D5400703D5606840F4E06060602878C3
:100B9000000703D5606840F4605060606068A96831
:100BA00020F0F000084360602878C00728D068680B
:100BB000012810D02168022810D0890700292EDAD8
:100BC000616821F0030101436160FFF7A3FD8046E6
:100BD00041F288390DE021688903EFE78901EDE7EB
:100BE000FFF798FDA0EB0801494502D90320BDE8B5
:100BF000F0876068696800F00C00B0EB810FEFD1FE
:100C0000306800F00700B8420BD9306820F00700C8
:100C100038433060306800F00700B84201D001204E
:100C2000E5E72878400705D56068E96820F4E060CA
:100C3000084360602878000706D56068296920F4B9
:100C4000605040EAC100606000F038F86168084A0E
:100C5000C1F30311515CC8400649086006480068AA
:100C6000FFF7F8FE0020C2E700200240001002401B
:100C7000C0250008140000200C000020044805498D
:100C800000684968044AC1F30221515CC8407047BA
:100C90001400002000100240D02500080448054937
:100CA00000684968044AC1F3C221515CC8407047DA
:100CB0001400002000100240D025000812A185B0C9
:100CC0000FC98DE80F0014A0144A00680490516801
:100CD000134801F00C03042B10D0082B0ED1C1F3E4
:100CE0008343C9031DF803000AD5516804AAC1F360
:100CF0004041515C0A4A5043B0FBF1F005B07047E7
:100D000008494843FAE700000203040506070809FA
:100D10000A0B0C0D0E0F1010010200000010024013
:100D200000127A0000093D002DE9F84F040070D050
:100D30002078C04DC00749D06868C0F38100012801
:100D400007D06868C0F38100022809D16868C00331
:100D500006D52868800339D560680028E7D035E0DB
:100D60006068B0F5803F0BD010B1B0F5A02F11D066
:100D7000286820F480302860286820F4802002E071
:100D8000286840F480302860606890B1FFF7C2FCAA
:100D900006460AE0286840F480202860F0E700BF9B
:100DA000FFF7B8FC801B642873D828688003F7D548
:100DB0000CE0FFF7AFFC064605E000BFFFF7AAFC1A
:100DC000801B6428F0D828688003F7D420789A4ED6
:100DD00080074FF001094FF0000839D5686810F01E
:100DE0000C0F07D06868C0F38100022809D1686839
:100DF000C00306D42868800714D52069012808D1CB
:100E000010E02069B0B1C6F80090FFF783FC0746F8
:100E100005E00AE1FFF77EFCC01B0228C4D8286861
:100E20008007F7D52868616920F0F80040EAC10022
:100E300028600DE0C6F80080FFF76CFC074604E070
:100E4000FFF768FCC01B022823D828688007F7D466
:100E5000207800072CD57948A169D9B1C0F8009055
:100E6000FFF758FC074604E0FFF754FCC01B0228BC
:100E70000FD8686A8007F7D571484FF4FA510068B7
:100E8000B0FBF1F0009000BF0098411E0091FAD233
:100E90000EE080E0C0F80080FFF73CFC074604E06D
:100EA000FFF738FCC01B022875D8686A8007F7D4A2
:100EB0002078400760D5E8690027C00008D4E869B9
:100EC00040F08050E861E869012700F08050009010
:100ED0005C480168C90513D40168834641F48071F8
:100EE0000160FFF717FC824606E000BFFFF712FC27
:100EF000A0EB0A0064284ED8DBF80000C005F5D549
:100F0000E06801280AD008B1052813D0286A20F02B
:100F100001002862286A20F0040002E0286A40F0FC
:100F200001002862E06841F2883B98B1FFF7F2FBCC
:100F300082460BE0286A40F004002862EEE700BF1A
:100F4000FFF7E8FBA0EB0A0159455AD8286A800749
:100F5000F6D50CE0FFF7DEFB824605E0FFF7DAFB93
:100F6000A0EB0A0159454CD8286A8007F6D41FB176
:100F7000E86920F08050E861E06988B36968C1F3EE
:100F80008101022944D00228C6F8608004D0FFF70E
:100F9000C1FB044638E034E0FFF7BCFB074604E041
:100FA000FFF7B8FBC01B02282BD828688001F7D4B4
:100FB000206AB0F5803F05D16868A16820F4003050
:100FC00008436860D4E908010843696821F4741192
:100FD00008436860C6F86090FFF79CFB044606E093
:100FE00025E000BFFFF796FB001B022809D8286800
:100FF0008001F7D51BE000BFFFF78CFB001B022828
:1010000002D90320BDE8F88F28688001F4D40EE0EF
:101010000128F7D06868226A00F48031914204D137
:10102000616A00F47010884201D00120EAE70020D4
:10103000E8E7000000100240000042428004424203
:10104000140000200070004010B5401EB0F1807FF9
:1010500001D3012010BD4FF0E02460610F21601723
:1010600001F000FA0020A06107202061002010BDDF
:1010700070B590F83C20012A19D0012400F83C4FAB
:101080000222427050F83C3C5A689D6822F070067B
:101090000A684968324325F0800529435A6050F8B0
:1010A0003C2C9160447000210170084670BD022004
:1010B00070BD10B5040003D094F83D0010B107E0F6
:1010C000012010BD002084F83C00204600F00CF800
:1010D000022084F83D00211D206800F00BFF012054
:1010E00084F83D00002010BD08B50068B0F1804FC5
:1010F00008D10548C16941F00101C161C06900F032
:101100000100009008BD00000010024070B50446C8
:1011100090F83C00012817D0012584F83C500220AB
:1011200084F83D002068826822F0770222F47F4232
:1011300082600868502830D00DDC20284DD005DCB6
:1011400098B310283BD148E0022070BD302844D02D
:10115000402834D139E0602828D0702806D0B0F576
:10116000805F2CD0B0F5005F29D10AE0CB68D1E9CF
:101170000121206800F001FF2068816841F07701BB
:1011800009E0CB68D1E90121206800F0F6FE206873
:10119000816841F48041816011E0CA684968206833
:1011A00000F0A0FF5021206807E016E0CA684968F7
:1011B000206800F0A8FF6021206800F0E8FE84F8B5
:1011C0003D50002084F83C0070BDCA684968206822
:1011D00000F088FF40212068EFE7226801461046B2
:1011E000EBE7000000B585B000210091019102916C
:1011F00003910068B0F1804F11D10A48816941F034
:10120000040181618069694600F0040004900120B6
:1012100000900220019003900348FFF78BF905B07E
:1012200000BD0000001002400008014070B50446F7
:1012300090F83C000D4601280DD0012684F83C6052
:10124000022084F83D0042B1042A18D0082A2AD08E
:101250000C2A4DD139E0022070BD206800F0A0FEBC
:101260002068816941F0080181612068816921F06D
:1012700004018161206881692A69114311E02068B5
:1012800000F0B6FE2068816941F400618161206848
:10129000816921F480618161206881692A6941EA5C
:1012A0000221816124E0206800F0CEFE2068C1693F
:1012B00041F00801C1612068C16921F00401C161E8
:1012C0002068C1692A69114311E0206800F0E8FE36
:1012D0002068C16941F40061C1612068C16921F4DD
:1012E0008061C1612068C1692A6941EA0221C16146
:1012F00084F83D60002084F83C0070BD10B5040007
:1013000003D094F83D0010B107E0012010BD00208B
:1013100084F83C00204600F00CF8022084F83D00E0
:10132000211D206800F0E6FD012084F83D0000202A
:1013300010BD704710B504460068012200F010FE91
:1013400009492068884203D1416C41F4004141645D
:101350002068816801F00701062903D0016841F087
:1013600001010160002010BD002C014010B50446B1
:101370000068416994F83920C1F3C011212A0BD1CA
:1013800051B1416921F080014161206B08B1FEF744
:101390003FFF204600F027FF2068416994F83A207B
:1013A000C1F38011222A0BD151B1416921F04001D2
:1013B0004161606B08B1FEF72BFF204600F005FF8E
:1013C000002010BD7047000070B502680446106828
:1013D000D168536910F00F0F50D003F0010501F4EC
:1013E000907635435DD0C20705D0CA0503D5E26BC0
:1013F00042F00102E263420705D5DA0703D0E26B4F
:1014000042F00202E263820705D5DA0703D0E26BFD
:1014100042F00402E263020705D5DA0703D0E26B6B
:1014200042F00802E263E26B002A33D0800604D562
:10143000880602D5204600F0DFFE20684069E16B97
:10144000C0F38010090700D428B3204600F0BDFE89
:101450002068416949061AD5416921F0400141617E
:10146000606BA0B11B494163606BFEF7F5FE00287D
:1014700010D0606B416BBDE870400847830610D503
:101480008B060ED52046BDE8704000F0B5BE204664
:10149000FFF798FF70BD2046FFF794FF0020E06340
:1014A00070BD030606D50B0604D52046BDE8704086
:1014B00000F04ABF4006F3D54806F1D5D168204672
:1014C00021F04001D160202184F8391000F0A2F908
:1014D00070BD00002B21000870B5040004D094F802
:1014E0003900002510B106E0012070BD84F83850A5
:1014F000204600F023F8242084F839002068C168D1
:1015000021F40051C160204600F0C2FE206801694C
:1015100021F4904101612068416921F02A01416173
:101520002068C16841F40051C160E563202084F85F
:10153000390084F83A00002070BD0000F0B585B095
:1015400000240646009401940294039400682C49F8
:10155000884253D12B48C16941F40031C161C1694E
:1015600001F400310491816941F0040181618069D5
:10157000254D00F00400049004200090022001900A
:101580000320039069462846FEF7D4FF0820CDE9E2
:101590000004694628460294FEF7CCFF1C4D1B4808
:1015A0008027C5E90004C5E902472C616C61AC6184
:1015B0002846EC61FEF746FF08B1FEF727FE75638B
:1015C0006E62134D11484435143001C5102091C589
:1015D0000F4845F8104944306C61AC61EC61FEF78E
:1015E00031FF08B1FEF712FE3563002211462620B6
:1015F0006E62FFF77BFA2620FFF76AFA05B0F0BDAE
:101600000044004000100240000801406C0002400D
:10161000380A0020F8B5044690F83A0020283CD15A
:10162000C1B3BAB394F83800012836D0012084F849
:101630003800A162A2850025E563222084F83A00E3
:10164000636B17489862636B1648D862636B1648E1
:101650001863606B134645630846666B2168024653
:101660003046091DFEF71CFF2068016841680091A3
:1016700084F83850C16841F48071C16020684169C4
:1016800041F0010141612068416941F0400141613F
:101690000020F8BDFFE70120FBE70220F9E700008A
:1016A00085210008C12100083B2100082DE9F041F7
:1016B0001C48006840681C4CC0F1C800C1B200253D
:1016C00021702846194A6FF02F060CE0135CA3F135
:1016D00030070A2F09D205EB850506EB45052B449B
:1016E000401C9DB2C0B28842F0D3C8220F491048B6
:1016F000FFF790FF8DB14FF4E150B0FBF5F0401EC5
:101700000C4980B2E0800A68D062C8600521401CA4
:10171000B0FBF1F0A080BDE8F081BDE8F04106A08B
:1017200000F098BE380A0020000000209C0800202D
:10173000F8090020B8090020E8BE93E585A5E994E2
:1017400099E8AFAFEFBC8CE8AFB7E9878DE696B00C
:10175000E8BE93E585A50A0070472DE9F8430446E5
:1017600090F839001F4616460D46202850D1A5B1E5
:101770009EB194F8380001284AD0012084F838003E
:101780004FF00008C4F83C80212084F83900FEF7AF
:10179000C1FFA6848146E68426E00120BDE8F883E7
:1017A000E08C401EE084A0684B46B0F5805F4FF0AF
:1017B00000024FF080012046009703D000F0F5FDB5
:1017C000E8B90DE000F0F1FDC8B928882168C0F340
:1017D00008004860206908B16D1C05E0AD1C03E0FD
:1017E000216815F8010B4860E08C0028D8D14B46E1
:1017F000002240212046009700F0D7FD08B10320C9
:10180000CCE7202084F8390084F838800020C5E730
:101810000220C3E77047FEE701684A69D2435205D8
:101820000FD46FF480624A61002140F8301F2022FB
:1018300042738173026942F0040202610173012064
:1018400070470020704700002DE9F8430446006807
:101850000D46DDE9089701689846164641F4807107
:1018600001604B4600224FF001112046009700F026
:101870005BF8E0B9216805F0FE0008613B464A4686
:101880001549204600F084F888B9206841698069CC
:1018900000903A464946204600F0C5F850B1206C09
:1018A000042804D12068016841F40071016001201E
:1018B000BDE8F883F5B2B8F1010F09D02168300A0C
:1018C00008613A464946204600F0ADF80028E6D1C6
:1018D000206805610020EBE70200010070B51646A4
:1018E0000D4604460DE02046FFF796FF08B10120A3
:1018F00070BD681C05D0FEF70DFF801BA84207D8FD
:1019000035B120684069C0434007ECD4002070BD69
:10191000002044F8300F20216173A073216941F049
:10192000200121612073E2E72DE9F0471E46904631
:101930000D460446C1F30747DDF8209008E0701C0F
:1019400006D0FEF7E7FEA0EB0900B0420FD876B153
:101950002068012F18D0806925EA00000004000CDF
:1019600014D000214145EAD00020BDE8F0870020D6
:1019700044F8300F20216173A073216941F02001E8
:10198000216120730120F0E74069E5E70121E9E7E3
:101990002DE9F0479A4691460E46044600254FF041
:1019A0002008C1F3074725E020684069C04340058F
:1019B00014D42068016841F40071016021686FF45B
:1019C00080604861256384F83D8084F83E50206C37
:1019D00040F00400206484F83C501FE0B9F1FF3F60
:1019E00008D0FEF797FEA0EB0A0149450CD8B9F1E3
:1019F000000F09D02068012F13D0806926EA00006B
:101A00000004000C0BD0CFE744F8305F84F80D8061
:101A1000A573206940F02000206125730120BDE8F6
:101A2000F0874069EAE770B516460D4604460DE0BA
:101A30002046FFF7F1FE08B1012070BD681C05D0FB
:101A4000FEF768FE801BA84207D835B120684069C0
:101A5000C0430006ECD4002070BD002044F8300FD5
:101A600020216173A073216941F02001216120735D
:101A7000E2E7000003B583B00A23012204A98DE840
:101A80000E001346024678210248FEF703FF05B018
:101A900000BD0000640900200D4808B5416941F00F
:101AA000010141614069002200F0010000901146EF
:101AB0001020FFF71BF81020FFF70AF8002211464C
:101AC0001120FFF713F8BDE808401120FFF700B818
:101AD000001002400D4808B5816941F02001816184
:101AE000816901F020010091816941F00401816167
:101AF000816901F004010091816941F0080181616F
:101B0000806900F00800009008BD0000001002404D
:101B10000D4810B50B4901600C49416000214FF49C
:101B200080428160C0E9031241618161C16101624B
:101B3000FEF7F6FD002803D0BDE81040FEF766BBB7
:101B400010BD00000054004064090020A086010080
:101B500010B58EB000240794089409940A940B944D
:101B60001C2168460C94FEF7E6FA1E484FF08041AF
:101B7000016042F20F71C0E901148F21C0E9031422
:101B800080218161FFF795FA08B1FEF73FFB4FF422
:101B90008050079007A91348FFF7B8FA08B1FEF77D
:101BA00035FB1048FFF7AAFB08B1FEF72FFB0B949B
:101BB0000BA90C480C94FFF75BFA08B1FEF726FB63
:101BC0006020CDE90004029400226946054804948F
:101BD000FFF72CFB08B1FEF719FB0248FFF702FBE9
:101BE0000EB010BDB80900200C4810B50A490160BC
:101BF0004FF4E1314160002181600C22C160C0E9F5
:101C000004128161C161FFF767FC002803D0BDE8C1
:101C10001040FEF7FBBA10BD00440040F809002058
:101C2000FEE7FEE770B5002404F1B000C0B200F09A
:101C300008FC002000F005FC102000F002FC00254C
:101C4000002000F002FC6D1CEDB2802DF8D3641C66
:101C5000E4B2082CE8D370BD70B5044615460E46B4
:101C60002E2000F0EEFB284600F0EBFB002000F0F9
:101C7000E8FB204600F0E5FB052000F0E2FB3046E3
:101C800000F0DFFB002000F0DCFBFF2000F0D9FBC0
:101C9000BDE870402F2000F0D4BB10B5AE2000F09E
:101CA000D0FB202000F0CDFB102000F0CAFBB020BC
:101CB00000F0C7FBC82000F0C4FB002000F0C1FB0F
:101CC000102000F0BEFB402000F0BBFB812000F0A4
:101CD000B8FBFF2000F0B5FBA12000F0B2FBA6206E
:101CE00000F0AFFBA82000F0ACFB3F2000F0A9FB08
:101CF000A42000F0A6FBD32000F0A3FB002000F0FE
:101D0000A0FBD52000F09DFBF02000F09AFBD9202D
:101D100000F097FB222000F094FBDA2000F091FB0A
:101D2000122000F08EFBDB2000F08BFB202000F067
:101D300088FB8D2000F085FB142000F082FBAF2093
:101D400000F07FFBBDE81040FFF76CBF2DE9F041CC
:101D50000E4F002404F1B000C0B200F072FB00206E
:101D600000F06FFB102000F06CFB002507EBC416A1
:101D7000705D00F06AFB6D1CADB2802DF8D3641C61
:101D8000A4B2082CE6D3BDE8F0810000C00A002010
:101D900030B5802817D2002915DB402913DACB177C
:101DA00001EB537323F007040C1B0121064DA140E6
:101DB000DB1005EBC3131844002A027801D00A4354
:101DC00000E08A43027030BDC00A00202DE9F05FB8
:101DD0008946824680282ED2B9F1000F2BDBB9F15B
:101DE000400F28DA164902EB0210002601EB400BE7
:101DF000002505EB06100BEB00080AEB050000249C
:101E00000FFA80F798F80200E04000F0010209EBB9
:101E1000040000EBC60001B23846FFF7B9FF641CAE
:101E2000E4B2082CEED36D1CEDB2102DE1D3761C7C
:101E3000F6B2022EDCD3BDE8F05FFFF787BF0000EB
:101E40003008002070477047FEF7EABD30B58FB00C
:101E500028216846FEF76FF914210AA8FEF76BF9EE
:101E600001210804CDE90010002402940225049108
:101E7000CDE907504FF4E01009906846FEF754FF93
:101E800008B172B6FEE70F20CDE90A054FF4806075
:101E9000CDE90C4002210AA80E94FEF759FE002855
:101EA00001D072B6FEE70FB030BD00000D480168EA
:101EB00041F00101016041680B4A11404160016835
:101EC0000A4A11400160016821F4802101604168E3
:101ED00021F4FE0141604FF41F0181600449C003F9
:101EE00008607047001002400000FFF8FFFFF6FE98
:101EF00008ED00E0F0B50268164B174C174D4FF097
:101F00008047984205D0B84203D0A04201D0A842F1
:101F100003D122F070064A683243984205D0B84295
:101F200003D0A04201D0A84203D122F44074CA6871
:101F300022434C6922F08002224302608A68C26216
:101F40000A688262984201D10969016301214161F5
:101F5000F0BD0000002C01400004004000080040DB
:101F600010B501F01F030121046A99408C430462FB
:101F7000016A9A401143016210BD10B5846842EABB
:101F8000032224F47F440A432243826010BD826806
:101F900022F070020A4342F007018160704700009E
:101FA00030B5026A22F001020262026A4368846963
:101FB00024F073050C682C4322F002058A682A433A
:101FC0000A4DA8420BD122F00805CA6823F44073D9
:101FD0002A434D6922F004021D438B692B43436061
:101FE000846149684163026230BD0000002C0140F9
:101FF00030B5026A22F010020262026A4368846904
:102000000D6824F4E64444EA05248D6822F0200299
:1020100042EA05120B4DA8420ED1CD6822F0800293
:1020200042EA05124D6923F4406343EA85038D6952
:1020300022F0400243EA850343608461496881637A
:10204000026230BD002C014030B5026A22F4807279
:102050000262036A4268C46923F4007324F07305C2
:102060000C682C438D6843EA05230C4DA8420ED121
:10207000CD6823F4006343EA05234D6922F44052FE
:1020800042EA05128D6923F4806342EA0512426038
:10209000C4614968C163036230BD0000002C014087
:1020A00030B5026A22F480520262046A4268C3694F
:1020B0000D6823F4E64343EA05238D6824F40054B5
:1020C00044EA0534064DA84204D14D6922F4804209
:1020D00042EA85124260C36149680164046230BD0E
:1020E000002C014010B5036A046A24F00104046264
:1020F000846924F0F00444EA021423F00A020A433B
:102100008461026210BD10B5036A23F010030362FC
:102110008369046A23F4704343EA023224F0A00383
:1021200043EA01118261016210BD10B5406A0021CD
:10213000C185C184FFF746F910BD70B5446A2068B7
:10214000406994F83910C0F3C0100025212904D14A
:1021500018B1E584204600F046F82068406994F8FC
:102160003A10C0F38010222904D118B1E585204629
:1021700000F02BF8E06B40F01000E0632046FFF722
:1021800021F970BD10B50146406A096809688906E1
:1021900013D40021C1850168CA6822F48072CA6024
:1021A00001684A6922F001024A6101684A6922F025
:1021B00040024A61202180F83A10FFF777FA10BDFB
:1021C00010B5406AFFF7C8FA10BD0168CA6822F46A
:1021D0009072CA6001684A6922F001024A612021B6
:1021E00080F83A1070470168CA6822F0C002CA60DD
:1021F000202180F83910704710B590F83A10222944
:1022000001D0022010BD8168B1F5805F11D0016955
:10221000002901681FD0496801F07F03816A4A1CC8
:1022200082620B70C18D491E0904090CC18518D04A
:102230002BE00269816A002A0268526805D0D2B296
:102240000A80816A491C8162ECE7C2F308020A80B5
:10225000816A891CF7E74A68816A4B1C83620A70AD
:10226000E0E70168CA6822F02002CA600168CA6813
:1022700022F48072CA6001684A6922F001024A6150
:10228000202180F83A10FFF711FA002010BD00005D
:102290002DE9F041044600680169E26821F44051EB
:1022A000114301612169A0680843616908432168FD
:1022B000CA6841F20C639A430243CA6020684169CC
:1022C000A26921F44071114341611E4920686425CF
:1022D0003226884202D1FEF7E1FC01E0FEF7CEFC97
:1022E00000EBC00101EB001160686FF0180780007F
:1022F000B1FBF0F2B2FBF5F2B1FBF0F37A4303EB82
:102300008202B1FBF0F306EB0212B2FBF5F2B3FB73
:10231000F5F302F0F00202EB0312B1FBF0F3B1FBB4
:10232000F0F0B0FBF5F0784303EB800006EB001013
:10233000B0FBF5F0216800F00F0010448860BDE8A4
:10234000F08100000038014090F83910212901D0B7
:10235000022070478168B1F5805F016A0BD04A1C8A
:102360000262026809785160C18C491E0904090C97
:10237000C1840ED017E009880268C1F308015160DA
:1023800001690029016A02D0491C0162ECE7891C3D
:10239000FBE70168CA6822F08002CA600068C16871
:1023A00041F04001C160002070472DE9F04198469E
:1023B00017460E460446069D1DE0681C1BD02DB135
:1023C000FEF7A8F9A0EB0800A84214D92068C1685C
:1023D00021F4D071C1602068416921F0010141619F
:1023E000202084F8390084F83A00002084F838006E
:1023F0000320BDE8F0812068006836EA000004D0C0
:102400000020B842D9D00020F3E70120F9E700000E
:1024100008B50A48FEF7D8FF084800680168C943B4
:10242000C9060AD40168406800900448FEF79EFF80
:10243000BDE808400148FFF739B908BDF809002098
:10244000FEE701460020FFF715BB01464020FFF7DD
:1024500011BB0000014A024900F023B8C52400085E
:10246000980800200907090E002804DB00F1E0208D
:1024700080F80014704700F00F0000F1E02080F8B1
:10248000141D704702E008C8121F08C1002AFAD1C3
:1024900070477047002001E001C1121F002AFBD1E4
:1024A00070472DE9F04116460F460446002503E02B
:1024B0003946B047641C6D1C20780028F8D12846A6
:1024C000BDE8F08113B54FF6FF730122694602485B
:1024D000FFF743F900981CBDF8090020FEF7A8FAA1
:1024E000FFF7B4FCFFF7F6FAFFF7D6FAFFF77CFB2D
:1024F000FFF72EFBFFF70CFB00212048FEF71AFF29
:102500001F480068C16841F01001C160C8221D4920
:102510001B48FFF77FF81CA0FFF79CFF1FA0FFF7E9
:1025200099FFFFF7BAFB002210211046FFF74EFC7F
:10253000102101220846FFF749FC02221021202029
:10254000FFF744FC262203210020FFF785FB0B4DFB
:102550001A4C00274FF4E15667800AE0401CB6FB96
:10256000F0F0FDF7D5FF296860884863A18808442A
:1025700060806188E0888142EED8EFE7B8090020EA
:10258000F80900209C080020E69BB4E694B9505757
:102590004DE9A291E78E870D0A000000E8AFB7E889
:1025A000BE93E585A550574DE9A291E78E87EFBC14
:1025B0008CE5A6823530487A0D0A00000000002024
:1025C00000000000000000000102030406070809E3
:1025D0000000000001020304F825000800000020AC
:1025E0009C08000070010008882B00089C0800204F
:1025F000240A00009424000841121C128F32018228
:1026000010A324F4422F1A0702111B147F02111683
:10261000242A7F2A1216626408132326364955227B
:10262000503B0503463322411C41221C2A15083E1B
:1026300008141A0806320823A0602A0801211A602B
:102640000B11162010080402263E5149453E1C423B
:102650007F40051561514946162141454B311618F9
:1026600014127F10162745454539163C4A49493012
:102670001C0171096216364949493626064949291D
:102680001E4336362A56062B0814782A1401297E52
:1026900013140816020151090616324959513E1603
:1026A0007C1211127C3A7F3C163E414141221A7F36
:1026B000053A1C1212411E7F0909090118144949E3
:1026C0007A1A7FA11A7F421A7F4E1E2040413F0195
:1026D00012295B1B7F400111167F020C027F3E7F97
:1026E0000408107F483A3E3C1A060C1C51215E0C2F
:1026F000141929461A465412311601017F01011A94
:102700003F35123F1E1F2040201F0C1A380C166345
:102710001408146316070870080719EF23454319B6
:102720008B211B552A0219781A417D1604020102D9
:102730000429712240290B11162054545478167F15
:10274000484444382E38444444200613487F1A38FD
:1027500018121816087E0901021D18A4A4A4E42565
:10276000080404781B447D3B1D4080847D5F341049
:1027700028441B417F121C7C04181E3A7C242948E3
:10278000123816FC242424181A18053AFC181208CA
:102790001A4854122016043F444020163C40402062
:1027A0007C1A1CC01A1C0C1430403C2B44284F16B9
:1027B0001CA0A0A07C3F4464544C4414010113723B
:1027C000F84333301C100C0603912C40C0780319D9
:1027D000672A0403212D7088FC0829261820FF2170
:1027E0001E14F008F033E0184D211C031E1133882D
:1027F00070000C101E2123241927211010160E45DD
:10280000E01804021C071820EA3D020418E0692CB5
:1028100020180707174080F08040403F0202010F58
:1028200001022842F01D0101011F04912B80B066B6
:10283000B1191D2901913A30CE492C146018043C7D
:102840006018061D1EE010080810721F0F102020CF
:10285000100FF05310F83620203F20203C7008085D
:10286000C21E3028242221441E3008888848082EA1
:102870001820202011CC3BC0203227070424243FFD
:10288000241AF8202308084B19212036E0108888E4
:10289000184B0F11101E380808C8382021523F1A53
:1028A000702E29608F1C222121221C90111D3122A3
:1028B0002211901961CAC0C26A80C659081C402002
:1028C0001050170102040810204A4001114A040167
:1028D0002119152A403219251B0402F21B7048D118
:1028E0003AF0501A360F1EC030C828E87028080782
:1028F00018272423140B6F2A387E280D203C23022E
:102900000227382008F888889F4B203FF01BC030F2
:102910003F1B083830191019781B08F80F19403977
:10292000201B100F103E8888E8081010AC232018D8
:1029300010112A035E2940223829402C221E024011
:1029400019A41809F808203F21010121252A08525D
:10295000298129424149112EC08080807F0E2FF8A5
:1029600088C0281808501C0126382F2940292F29F3
:10297000801B20301012F81AF81413203F19022976
:10298000204B30C0601A2074123F4BE010B06B0F28
:1029900010B029D01AF0301980220179203F182474
:1029A0002438504FC04C888870C0140C30204B70B5
:1029B00088C11738202121221C3A189F4A188239D1
:1029C000A049D0112A1F90121F240878881BC838EC
:1029D000151C07380E60191A1AF8201114033C0749
:1029E00014073C03481408186880806818082030D1
:1029F0002C03032C30200838C82F5950298F291058
:102A00002F203826212020681145FE020202257F52
:102A10004040401A0CE0611C0106380B191D42FEB3
:102A2000191D527F1A04120211045A80011930D95B
:102A30001D391621180819242222223F20AB390FF4
:102A4000115F3F112020110E21311A0E104B201161
:102A5000104B88F8102A10B359401A1F3F2B22132D
:102A60000F16F0888888181A20D029D1497A2117A2
:102A70006B94949493603960190F4C203F21F35468
:102A8000809898793059121AC02719D119303931E4
:102A90001F203F24022D30212A0812893069D729AE
:102AA0004B2903190BC96079A019BF2B201FDD39F1
:102AB0000F9C80FFA1E0191229D03BA0FF0C3950D8
:102AC000194112208A01C01B3324012A190F3AE050
:102AD000413952290F392349603C103F202C2905E8
:102AE0003F010E3008060170291038080F300C0322
:102AF0000C300F2C49A14E312E0E31200C29621DB5
:102B0000818E70183059D1215721302C2221305517
:102B1000807C0202443F404072FF39083C02027C44
:102B20008F5440403F800806010102020404101245
:102B3000C0EE8084444424140CFF0C1424444484C8
:102B4000801A08012808094989790D0B090B111809
:102B50000BD0FB100C24A4A4A4A5A6051AA42A1922
:102B60004B4C405F4A011A5F0C112809D3A88464BA
:102B700024242F240119061BA464931B8189013F7F
:082B8000FF89A9C989817F4189
:04000005080000ED02
:00000001FF
